{
  "_format": "hh-sol-artifact-1",
  "contractName": "WeedleNFTTokenV1",
  "sourceName": "contracts/WeedleNFTTokenV1.sol",
  "abi": [
    {
      "anonymous": false,
      "inputs": [
        {
          "indexed": true,
          "internalType": "address",
          "name": "account",
          "type": "address"
        },
        {
          "indexed": true,
          "internalType": "address",
          "name": "operator",
          "type": "address"
        },
        {
          "indexed": false,
          "internalType": "bool",
          "name": "approved",
          "type": "bool"
        }
      ],
      "name": "ApprovalForAll",
      "type": "event"
    },
    {
      "anonymous": false,
      "inputs": [
        {
          "indexed": true,
          "internalType": "address",
          "name": "payee",
          "type": "address"
        },
        {
          "indexed": false,
          "internalType": "uint256",
          "name": "amount",
          "type": "uint256"
        }
      ],
      "name": "FundsTransfer",
      "type": "event"
    },
    {
      "anonymous": false,
      "inputs": [
        {
          "indexed": true,
          "internalType": "uint256",
          "name": "tokenId",
          "type": "uint256"
        },
        {
          "indexed": true,
          "internalType": "address",
          "name": "mintedFor",
          "type": "address"
        },
        {
          "indexed": false,
          "internalType": "uint256",
          "name": "amount",
          "type": "uint256"
        }
      ],
      "name": "NFTMinted",
      "type": "event"
    },
    {
      "anonymous": false,
      "inputs": [
        {
          "indexed": true,
          "internalType": "address",
          "name": "previousOwner",
          "type": "address"
        },
        {
          "indexed": true,
          "internalType": "address",
          "name": "newOwner",
          "type": "address"
        }
      ],
      "name": "OwnershipTransferred",
      "type": "event"
    },
    {
      "anonymous": false,
      "inputs": [
        {
          "indexed": false,
          "internalType": "uint256",
          "name": "newPrice",
          "type": "uint256"
        }
      ],
      "name": "PriceUpdate",
      "type": "event"
    },
    {
      "anonymous": false,
      "inputs": [
        {
          "indexed": true,
          "internalType": "bytes32",
          "name": "role",
          "type": "bytes32"
        },
        {
          "indexed": true,
          "internalType": "bytes32",
          "name": "previousAdminRole",
          "type": "bytes32"
        },
        {
          "indexed": true,
          "internalType": "bytes32",
          "name": "newAdminRole",
          "type": "bytes32"
        }
      ],
      "name": "RoleAdminChanged",
      "type": "event"
    },
    {
      "anonymous": false,
      "inputs": [
        {
          "indexed": true,
          "internalType": "bytes32",
          "name": "role",
          "type": "bytes32"
        },
        {
          "indexed": true,
          "internalType": "address",
          "name": "account",
          "type": "address"
        },
        {
          "indexed": true,
          "internalType": "address",
          "name": "sender",
          "type": "address"
        }
      ],
      "name": "RoleGranted",
      "type": "event"
    },
    {
      "anonymous": false,
      "inputs": [
        {
          "indexed": true,
          "internalType": "bytes32",
          "name": "role",
          "type": "bytes32"
        },
        {
          "indexed": true,
          "internalType": "address",
          "name": "account",
          "type": "address"
        },
        {
          "indexed": true,
          "internalType": "address",
          "name": "sender",
          "type": "address"
        }
      ],
      "name": "RoleRevoked",
      "type": "event"
    },
    {
      "anonymous": false,
      "inputs": [
        {
          "indexed": true,
          "internalType": "address",
          "name": "operator",
          "type": "address"
        },
        {
          "indexed": true,
          "internalType": "address",
          "name": "from",
          "type": "address"
        },
        {
          "indexed": true,
          "internalType": "address",
          "name": "to",
          "type": "address"
        },
        {
          "indexed": false,
          "internalType": "uint256[]",
          "name": "ids",
          "type": "uint256[]"
        },
        {
          "indexed": false,
          "internalType": "uint256[]",
          "name": "values",
          "type": "uint256[]"
        }
      ],
      "name": "TransferBatch",
      "type": "event"
    },
    {
      "anonymous": false,
      "inputs": [
        {
          "indexed": true,
          "internalType": "address",
          "name": "operator",
          "type": "address"
        },
        {
          "indexed": true,
          "internalType": "address",
          "name": "from",
          "type": "address"
        },
        {
          "indexed": true,
          "internalType": "address",
          "name": "to",
          "type": "address"
        },
        {
          "indexed": false,
          "internalType": "uint256",
          "name": "id",
          "type": "uint256"
        },
        {
          "indexed": false,
          "internalType": "uint256",
          "name": "value",
          "type": "uint256"
        }
      ],
      "name": "TransferSingle",
      "type": "event"
    },
    {
      "anonymous": false,
      "inputs": [
        {
          "indexed": false,
          "internalType": "string",
          "name": "value",
          "type": "string"
        },
        {
          "indexed": true,
          "internalType": "uint256",
          "name": "id",
          "type": "uint256"
        }
      ],
      "name": "URI",
      "type": "event"
    },
    {
      "inputs": [],
      "name": "DEFAULT_ADMIN_ROLE",
      "outputs": [
        {
          "internalType": "bytes32",
          "name": "",
          "type": "bytes32"
        }
      ],
      "stateMutability": "view",
      "type": "function"
    },
    {
      "inputs": [],
      "name": "MINTER_ROLE",
      "outputs": [
        {
          "internalType": "bytes32",
          "name": "",
          "type": "bytes32"
        }
      ],
      "stateMutability": "view",
      "type": "function"
    },
    {
      "inputs": [
        {
          "internalType": "address",
          "name": "account",
          "type": "address"
        },
        {
          "internalType": "uint256",
          "name": "id",
          "type": "uint256"
        }
      ],
      "name": "balanceOf",
      "outputs": [
        {
          "internalType": "uint256",
          "name": "",
          "type": "uint256"
        }
      ],
      "stateMutability": "view",
      "type": "function"
    },
    {
      "inputs": [
        {
          "internalType": "address[]",
          "name": "accounts",
          "type": "address[]"
        },
        {
          "internalType": "uint256[]",
          "name": "ids",
          "type": "uint256[]"
        }
      ],
      "name": "balanceOfBatch",
      "outputs": [
        {
          "internalType": "uint256[]",
          "name": "",
          "type": "uint256[]"
        }
      ],
      "stateMutability": "view",
      "type": "function"
    },
    {
      "inputs": [
        {
          "internalType": "bytes32",
          "name": "role",
          "type": "bytes32"
        }
      ],
      "name": "getRoleAdmin",
      "outputs": [
        {
          "internalType": "bytes32",
          "name": "",
          "type": "bytes32"
        }
      ],
      "stateMutability": "view",
      "type": "function"
    },
    {
      "inputs": [
        {
          "internalType": "bytes32",
          "name": "role",
          "type": "bytes32"
        },
        {
          "internalType": "address",
          "name": "account",
          "type": "address"
        }
      ],
      "name": "grantRole",
      "outputs": [],
      "stateMutability": "nonpayable",
      "type": "function"
    },
    {
      "inputs": [
        {
          "internalType": "bytes32",
          "name": "role",
          "type": "bytes32"
        },
        {
          "internalType": "address",
          "name": "account",
          "type": "address"
        }
      ],
      "name": "hasRole",
      "outputs": [
        {
          "internalType": "bool",
          "name": "",
          "type": "bool"
        }
      ],
      "stateMutability": "view",
      "type": "function"
    },
    {
      "inputs": [
        {
          "components": [
            {
              "internalType": "string",
              "name": "uri",
              "type": "string"
            },
            {
              "internalType": "string",
              "name": "name",
              "type": "string"
            },
            {
              "internalType": "uint256",
              "name": "price",
              "type": "uint256"
            },
            {
              "internalType": "uint256",
              "name": "maxSupply",
              "type": "uint256"
            },
            {
              "internalType": "uint256",
              "name": "maxMintsAllowed",
              "type": "uint256"
            }
          ],
          "internalType": "struct SharedStructs.Settings",
          "name": "_settings",
          "type": "tuple"
        },
        {
          "internalType": "address",
          "name": "_admin",
          "type": "address"
        }
      ],
      "name": "initialize",
      "outputs": [],
      "stateMutability": "nonpayable",
      "type": "function"
    },
    {
      "inputs": [
        {
          "internalType": "address",
          "name": "account",
          "type": "address"
        },
        {
          "internalType": "address",
          "name": "operator",
          "type": "address"
        }
      ],
      "name": "isApprovedForAll",
      "outputs": [
        {
          "internalType": "bool",
          "name": "",
          "type": "bool"
        }
      ],
      "stateMutability": "view",
      "type": "function"
    },
    {
      "inputs": [],
      "name": "mint",
      "outputs": [
        {
          "internalType": "uint256",
          "name": "",
          "type": "uint256"
        }
      ],
      "stateMutability": "nonpayable",
      "type": "function"
    },
    {
      "inputs": [],
      "name": "owner",
      "outputs": [
        {
          "internalType": "address",
          "name": "",
          "type": "address"
        }
      ],
      "stateMutability": "view",
      "type": "function"
    },
    {
      "inputs": [
        {
          "internalType": "uint256",
          "name": "tokenId",
          "type": "uint256"
        }
      ],
      "name": "ownerOf",
      "outputs": [
        {
          "internalType": "address",
          "name": "",
          "type": "address"
        }
      ],
      "stateMutability": "view",
      "type": "function"
    },
    {
      "inputs": [
        {
          "internalType": "bytes32",
          "name": "hash",
          "type": "bytes32"
        },
        {
          "internalType": "bytes",
          "name": "signature",
          "type": "bytes"
        }
      ],
      "name": "reedemAndMint",
      "outputs": [],
      "stateMutability": "payable",
      "type": "function"
    },
    {
      "inputs": [],
      "name": "renounceOwnership",
      "outputs": [],
      "stateMutability": "nonpayable",
      "type": "function"
    },
    {
      "inputs": [
        {
          "internalType": "bytes32",
          "name": "role",
          "type": "bytes32"
        },
        {
          "internalType": "address",
          "name": "account",
          "type": "address"
        }
      ],
      "name": "renounceRole",
      "outputs": [],
      "stateMutability": "nonpayable",
      "type": "function"
    },
    {
      "inputs": [
        {
          "internalType": "bytes32",
          "name": "role",
          "type": "bytes32"
        },
        {
          "internalType": "address",
          "name": "account",
          "type": "address"
        }
      ],
      "name": "revokeRole",
      "outputs": [],
      "stateMutability": "nonpayable",
      "type": "function"
    },
    {
      "inputs": [
        {
          "internalType": "address",
          "name": "from",
          "type": "address"
        },
        {
          "internalType": "address",
          "name": "to",
          "type": "address"
        },
        {
          "internalType": "uint256[]",
          "name": "ids",
          "type": "uint256[]"
        },
        {
          "internalType": "uint256[]",
          "name": "amounts",
          "type": "uint256[]"
        },
        {
          "internalType": "bytes",
          "name": "data",
          "type": "bytes"
        }
      ],
      "name": "safeBatchTransferFrom",
      "outputs": [],
      "stateMutability": "nonpayable",
      "type": "function"
    },
    {
      "inputs": [
        {
          "internalType": "address",
          "name": "from",
          "type": "address"
        },
        {
          "internalType": "address",
          "name": "to",
          "type": "address"
        },
        {
          "internalType": "uint256",
          "name": "id",
          "type": "uint256"
        },
        {
          "internalType": "uint256",
          "name": "amount",
          "type": "uint256"
        },
        {
          "internalType": "bytes",
          "name": "data",
          "type": "bytes"
        }
      ],
      "name": "safeTransferFrom",
      "outputs": [],
      "stateMutability": "nonpayable",
      "type": "function"
    },
    {
      "inputs": [
        {
          "internalType": "address",
          "name": "operator",
          "type": "address"
        },
        {
          "internalType": "bool",
          "name": "approved",
          "type": "bool"
        }
      ],
      "name": "setApprovalForAll",
      "outputs": [],
      "stateMutability": "nonpayable",
      "type": "function"
    },
    {
      "inputs": [
        {
          "internalType": "bytes4",
          "name": "interfaceId",
          "type": "bytes4"
        }
      ],
      "name": "supportsInterface",
      "outputs": [
        {
          "internalType": "bool",
          "name": "",
          "type": "bool"
        }
      ],
      "stateMutability": "view",
      "type": "function"
    },
    {
      "inputs": [
        {
          "internalType": "address",
          "name": "newOwner",
          "type": "address"
        }
      ],
      "name": "transferOwnership",
      "outputs": [],
      "stateMutability": "nonpayable",
      "type": "function"
    },
    {
      "inputs": [
        {
          "internalType": "uint256",
          "name": "_newPrice",
          "type": "uint256"
        }
      ],
      "name": "updatePrice",
      "outputs": [],
      "stateMutability": "nonpayable",
      "type": "function"
    },
    {
      "inputs": [
        {
          "internalType": "uint256",
          "name": "",
          "type": "uint256"
        }
      ],
      "name": "uri",
      "outputs": [
        {
          "internalType": "string",
          "name": "",
          "type": "string"
        }
      ],
      "stateMutability": "view",
      "type": "function"
    }
  ],
  "bytecode": "0x608060405234801561001057600080fd5b5061311c806100206000396000f3fe60806040526004361061013f5760003560e01c806363b57718116100b6578063a22cb4651161006f578063a22cb4651461039b578063d5391393146103bb578063d547741f146103ef578063e985e9c51461040f578063f242432a14610458578063f2fde38b1461047857600080fd5b806363b57718146102f3578063715018a6146103135780638d6cc56d146103285780638da5cb5b1461034857806391d1485414610366578063a217fddf1461038657600080fd5b8063248a9ca311610108578063248a9ca3146101fe5780632eb2c2d61461022e5780632f2ff15d1461024e57806336568abe1461026e5780634e1273f41461028e5780636352211e146102bb57600080fd5b8062fdd58e1461014457806301ffc9a7146101775780630e89341c146101a75780631038ddf0146101d45780631249c58b146101e9575b600080fd5b34801561015057600080fd5b5061016461015f366004612710565b610498565b6040519081526020015b60405180910390f35b34801561018357600080fd5b506101976101923660046128c1565b610534565b604051901515815260200161016e565b3480156101b357600080fd5b506101c76101c236600461280a565b61053f565b60405161016e9190612af6565b6101e76101e2366004612846565b6105d3565b005b3480156101f557600080fd5b50610164610890565b34801561020a57600080fd5b5061016461021936600461280a565b600090815260c9602052604090206001015490565b34801561023a57600080fd5b506101e76102493660046125c7565b6108cc565b34801561025a57600080fd5b506101e7610269366004612823565b610963565b34801561027a57600080fd5b506101e7610289366004612823565b610989565b34801561029a57600080fd5b506102ae6102a936600461273a565b610a07565b60405161016e9190612ab5565b3480156102c757600080fd5b506102db6102d636600461280a565b610b30565b6040516001600160a01b03909116815260200161016e565b3480156102ff57600080fd5b506101e761030e3660046128fb565b610b97565b34801561031f57600080fd5b506101e7610d3c565b34801561033457600080fd5b506101e761034336600461280a565b610d72565b34801561035457600080fd5b506097546001600160a01b03166102db565b34801561037257600080fd5b50610197610381366004612823565b610dd8565b34801561039257600080fd5b50610164600081565b3480156103a757600080fd5b506101e76103b63660046126d4565b610e03565b3480156103c757600080fd5b506101647f9f2df0fed2c77648de5860a4cc508cd0818c85b8b8a1ab4ceeef8d981c8956a681565b3480156103fb57600080fd5b506101e761040a366004612823565b610e0e565b34801561041b57600080fd5b5061019761042a366004612594565b6001600160a01b03918216600090815260666020908152604080832093909416825291909152205460ff1690565b34801561046457600080fd5b506101e7610473366004612670565b610e34565b34801561048457600080fd5b506101e7610493366004612579565b610ebb565b60006001600160a01b0383166105095760405162461bcd60e51b815260206004820152602b60248201527f455243313135353a2062616c616e636520717565727920666f7220746865207a60448201526a65726f206164647265737360a81b60648201526084015b60405180910390fd5b5060008181526065602090815260408083206001600160a01b03861684529091529020545b92915050565b600061052e82610f56565b60606067805461054e90612e4c565b80601f016020809104026020016040519081016040528092919081815260200182805461057a90612e4c565b80156105c75780601f1061059c576101008083540402835291602001916105c7565b820191906000526020600020905b8154815290600101906020018083116105aa57829003601f168201915b50505050509050919050565b610169546105e2610163610f7b565b11156106255760405162461bcd60e51b81526020600482015260126024820152714d696e74696e672068617320656e6465642160701b6044820152606401610500565b61016a5433600090815261016160205260409020541061069d5760405162461bcd60e51b815260206004820152602d60248201527f596f7520686176652065786365656465642074686520616c6c6f776564206e7560448201526c6d626572206f66206d696e747360981b6064820152608401610500565b336106b06097546001600160a01b031690565b604080516001600160a01b03938416602082015292909116908201523060608201526080016040516020818303038152906040528051906020012083146107285760405162461bcd60e51b815260206004820152600c60248201526b092dcecc2d8d2c840d0c2e6d60a31b6044820152606401610500565b6097546001600160a01b03166107ca61078e856040517f19457468657265756d205369676e6564204d6573736167653a0a3332000000006020820152603c8101829052600090605c01604051602081830303815290604052805190602001209050919050565b84848080601f016020809104026020016040519081016040528093929190818152602001838380828437600092019190915250610f8692505050565b6001600160a01b0316146108145760405162461bcd60e51b8152602060048201526011602482015270496e76616c6964207369676e617475726560781b6044820152606401610500565b6101685434146108665760405162461bcd60e51b815260206004820181905260248201527f496e73756666696369656e7420616d6f756e742073656e7420666f72204e46546044820152606401610500565b61086f33610fa2565b5061088b6108856097546001600160a01b031690565b34611126565b505050565b6097546000906001600160a01b031633146108bd5760405162461bcd60e51b815260040161050090612be0565b6108c633610fa2565b90505b90565b6001600160a01b0385163314806108e857506108e8853361042a565b61094f5760405162461bcd60e51b815260206004820152603260248201527f455243313135353a207472616e736665722063616c6c6572206973206e6f74206044820152711bdddb995c881b9bdc88185c1c1c9bdd995960721b6064820152608401610500565b61095c8585858585611266565b5050505050565b600082815260c9602052604090206001015461097f8133611446565b61088b83836114aa565b6001600160a01b03811633146109f95760405162461bcd60e51b815260206004820152602f60248201527f416363657373436f6e74726f6c3a2063616e206f6e6c792072656e6f756e636560448201526e103937b632b9903337b91039b2b63360891b6064820152608401610500565b610a038282611530565b5050565b60608151835114610a6c5760405162461bcd60e51b815260206004820152602960248201527f455243313135353a206163636f756e747320616e6420696473206c656e677468604482015268040dad2e6dac2e8c6d60bb1b6064820152608401610500565b600083516001600160401b03811115610a8757610a87612f10565b604051908082528060200260200182016040528015610ab0578160200160208202803683370190505b50905060005b8451811015610b2857610afb858281518110610ad457610ad4612efa565b6020026020010151858381518110610aee57610aee612efa565b6020026020010151610498565b828281518110610b0d57610b0d612efa565b6020908102919091010152610b2181612eb3565b9050610ab6565b509392505050565b600080610b3f61016384611597565b90506001600160a01b03811661052e5760405162461bcd60e51b815260206004820152601c60248201527f517565727920666f72206e6f6e6578697374656e7420746f6b656e21000000006044820152606401610500565b600054610100900460ff16610bb25760005460ff1615610bb6565b303b155b610c195760405162461bcd60e51b815260206004820152602e60248201527f496e697469616c697a61626c653a20636f6e747261637420697320616c72656160448201526d191e481a5b9a5d1a585b1a5e995960921b6064820152608401610500565b600054610100900460ff16158015610c3b576000805461ffff19166101011790555b610c82610c488480612c60565b8080601f0160208091040260200160405190810160405280939291908181526020018383808284376000920191909152506115aa92505050565b610c8a6115da565b610c92611609565b610cf9610ca26020850185612c60565b8080601f016020809104026020016040519081016040528093929190818152602001838380828437600092019190915250506040805180820190915260058152640312e302e360dc1b602082015291506116309050565b610d01611661565b610d0a82610ebb565b82610166610d188282612fca565b50610d269050600083611690565b801561088b576000805461ff0019169055505050565b6097546001600160a01b03163314610d665760405162461bcd60e51b815260040161050090612be0565b610d70600061169a565b565b6097546001600160a01b03163314610d9c5760405162461bcd60e51b815260040161050090612be0565b6101688190556040518181527fae46785019700e30375a5d7b4f91e32f8060ef085111f896ebf889450aa2ab5a9060200160405180910390a150565b600091825260c9602090815260408084206001600160a01b0393909316845291905290205460ff1690565b610a033383836116ec565b600082815260c96020526040902060010154610e2a8133611446565b61088b8383611530565b6001600160a01b038516331480610e505750610e50853361042a565b610eae5760405162461bcd60e51b815260206004820152602960248201527f455243313135353a2063616c6c6572206973206e6f74206f776e6572206e6f7260448201526808185c1c1c9bdd995960ba1b6064820152608401610500565b61095c85858585856117cd565b6097546001600160a01b03163314610ee55760405162461bcd60e51b815260040161050090612be0565b6001600160a01b038116610f4a5760405162461bcd60e51b815260206004820152602660248201527f4f776e61626c653a206e6577206f776e657220697320746865207a65726f206160448201526564647265737360d01b6064820152608401610500565b610f538161169a565b50565b60006001600160e01b03198216637965db0b60e01b148061052e575061052e826118f7565b600061052e82611947565b6000806000610f958585611952565b91509150610b28816119c2565b61016954600090610fb36101625490565b610fbe906001612cc9565b11156110165760405162461bcd60e51b815260206004820152602160248201527f4d696e74696e67204572726f723a204d696e74696e672068617320656e6465646044820152602160f81b6064820152608401610500565b61102561016280546001019055565b60006110316101625490565b905061103f61016382611b7d565b156110835760405162461bcd60e51b8152602060048201526014602482015273151bdad95b88185b1c9958591e481b5a5b9d195960621b6044820152606401610500565b3360009081526101616020526040812080549091906110a190612eb3565b909155506110bc6110b26101625490565b6101639085611b89565b506110d98382600160405180602001604052806000815250611ba7565b826001600160a01b0316817f055e34067993de700e7f718f190fdccc92a27695bb9068504a1a44258577f8eb600160405161111691815260200190565b60405180910390a390505b919050565b600261012f54141561117a5760405162461bcd60e51b815260206004820152601f60248201527f5265656e7472616e637947756172643a207265656e7472616e742063616c6c006044820152606401610500565b600261012f556040516000906001600160a01b0384169083908381818185875af1925050503d80600081146111cb576040519150601f19603f3d011682016040523d82523d6000602084013e6111d0565b606091505b50509050806112185760405162461bcd60e51b81526020600482015260146024820152732330b4b632b2103a379039b2b7321022ba3432b960611b6044820152606401610500565b826001600160a01b03167fe4a4217f2dc0b69a9a45e3fd49d47fc0e2081b6590b9c8bfa4b7d3f17dfdf9178360405161125391815260200190565b60405180910390a25050600161012f5550565b81518351146112c85760405162461bcd60e51b815260206004820152602860248201527f455243313135353a2069647320616e6420616d6f756e7473206c656e677468206044820152670dad2e6dac2e8c6d60c31b6064820152608401610500565b6001600160a01b0384166112ee5760405162461bcd60e51b815260040161050090612b51565b3360005b84518110156113d857600085828151811061130f5761130f612efa565b60200260200101519050600085838151811061132d5761132d612efa565b60209081029190910181015160008481526065835260408082206001600160a01b038e16835290935291909120549091508181101561137e5760405162461bcd60e51b815260040161050090612b96565b60008381526065602090815260408083206001600160a01b038e8116855292528083208585039055908b168252812080548492906113bd908490612cc9565b92505081905550505050806113d190612eb3565b90506112f2565b50846001600160a01b0316866001600160a01b0316826001600160a01b03167f4a39dc06d4c0dbc64b70af90fd698a233a518aa5d07e595d983b8c0526c8f7fb8787604051611428929190612ac8565b60405180910390a461143e818787878787611caa565b505050505050565b6114508282610dd8565b610a0357611468816001600160a01b03166014611e15565b611473836020611e15565b60405160200161148492919061299d565b60408051601f198184030181529082905262461bcd60e51b825261050091600401612af6565b6114b48282610dd8565b610a0357600082815260c9602090815260408083206001600160a01b03851684529091529020805460ff191660011790556114ec3390565b6001600160a01b0316816001600160a01b0316837f2f8788117e7eff1d82e926ec794901d17c78024a50270940304540a733656f0d60405160405180910390a45050565b61153a8282610dd8565b15610a0357600082815260c9602090815260408083206001600160a01b0385168085529252808320805460ff1916905551339285917ff6391f5c32d9c69d2a47ea670b442974b53935d1edc7fd64eb21e047a839171b9190a45050565b60006115a38383611fb0565b9392505050565b600054610100900460ff166115d15760405162461bcd60e51b815260040161050090612c15565b610f5381612020565b600054610100900460ff166116015760405162461bcd60e51b815260040161050090612c15565b610d70612050565b600054610100900460ff16610d705760405162461bcd60e51b815260040161050090612c15565b600054610100900460ff166116575760405162461bcd60e51b815260040161050090612c15565b610a038282612080565b600054610100900460ff166116885760405162461bcd60e51b815260040161050090612c15565b610d706120c1565b610a0382826114aa565b609780546001600160a01b038381166001600160a01b0319831681179093556040519116919082907f8be0079c531659141344cd1fd0a4f28419497f9722a3daafe3b4186f6b6457e090600090a35050565b816001600160a01b0316836001600160a01b031614156117605760405162461bcd60e51b815260206004820152602960248201527f455243313135353a2073657474696e6720617070726f76616c20737461747573604482015268103337b91039b2b63360b91b6064820152608401610500565b6001600160a01b03838116600081815260666020908152604080832094871680845294825291829020805460ff191686151590811790915591519182527f17307eab39ab6107e8899845ad3d59bd9653f200f220920489ca2b5937696c31910160405180910390a3505050565b6001600160a01b0384166117f35760405162461bcd60e51b815260040161050090612b51565b3361180c818787611803886120f0565b61095c886120f0565b60008481526065602090815260408083206001600160a01b038a1684529091529020548381101561184f5760405162461bcd60e51b815260040161050090612b96565b60008581526065602090815260408083206001600160a01b038b811685529252808320878503905590881682528120805486929061188e908490612cc9565b909155505060408051868152602081018690526001600160a01b03808916928a821692918616917fc3d58168c5ae7397731d063d5bbf3d657854427343f4c083240f7aacaa2d0f62910160405180910390a46118ee82888888888861213b565b50505050505050565b60006001600160e01b03198216636cdb3d1360e11b148061192857506001600160e01b031982166303a24d0760e21b145b8061052e57506301ffc9a760e01b6001600160e01b031983161461052e565b600061052e82612205565b6000808251604114156119895760208301516040840151606085015160001a61197d8782858561220f565b945094505050506119bb565b8251604014156119b357602083015160408401516119a88683836122fc565b9350935050506119bb565b506000905060025b9250929050565b60008160048111156119d6576119d6612ee4565b14156119df5750565b60018160048111156119f3576119f3612ee4565b1415611a415760405162461bcd60e51b815260206004820152601860248201527f45434453413a20696e76616c6964207369676e617475726500000000000000006044820152606401610500565b6002816004811115611a5557611a55612ee4565b1415611aa35760405162461bcd60e51b815260206004820152601f60248201527f45434453413a20696e76616c6964207369676e6174757265206c656e677468006044820152606401610500565b6003816004811115611ab757611ab7612ee4565b1415611b105760405162461bcd60e51b815260206004820152602260248201527f45434453413a20696e76616c6964207369676e6174757265202773272076616c604482015261756560f01b6064820152608401610500565b6004816004811115611b2457611b24612ee4565b1415610f535760405162461bcd60e51b815260206004820152602260248201527f45434453413a20696e76616c6964207369676e6174757265202776272076616c604482015261756560f01b6064820152608401610500565b60006115a38383612335565b6000611b9f84846001600160a01b038516612341565b949350505050565b6001600160a01b038416611c075760405162461bcd60e51b815260206004820152602160248201527f455243313135353a206d696e7420746f20746865207a65726f206164647265736044820152607360f81b6064820152608401610500565b33611c1881600087611803886120f0565b60008481526065602090815260408083206001600160a01b038916845290915281208054859290611c4a908490612cc9565b909155505060408051858152602081018590526001600160a01b0380881692600092918516917fc3d58168c5ae7397731d063d5bbf3d657854427343f4c083240f7aacaa2d0f62910160405180910390a461095c8160008787878761213b565b6001600160a01b0384163b1561143e5760405163bc197c8160e01b81526001600160a01b0385169063bc197c8190611cee9089908990889088908890600401612a12565b602060405180830381600087803b158015611d0857600080fd5b505af1925050508015611d38575060408051601f3d908101601f19168201909252611d35918101906128de565b60015b611de557611d44612f26565b806308c379a01415611d7e5750611d59612f41565b80611d645750611d80565b8060405162461bcd60e51b81526004016105009190612af6565b505b60405162461bcd60e51b815260206004820152603460248201527f455243313135353a207472616e7366657220746f206e6f6e20455243313135356044820152732932b1b2b4bb32b91034b6b83632b6b2b73a32b960611b6064820152608401610500565b6001600160e01b0319811663bc197c8160e01b146118ee5760405162461bcd60e51b815260040161050090612b09565b60606000611e24836002612ce1565b611e2f906002612cc9565b6001600160401b03811115611e4657611e46612f10565b6040519080825280601f01601f191660200182016040528015611e70576020820181803683370190505b509050600360fc1b81600081518110611e8b57611e8b612efa565b60200101906001600160f81b031916908160001a905350600f60fb1b81600181518110611eba57611eba612efa565b60200101906001600160f81b031916908160001a9053506000611ede846002612ce1565b611ee9906001612cc9565b90505b6001811115611f61576f181899199a1a9b1b9c1cb0b131b232b360811b85600f1660108110611f1d57611f1d612efa565b1a60f81b828281518110611f3357611f33612efa565b60200101906001600160f81b031916908160001a90535060049490941c93611f5a81612e35565b9050611eec565b5083156115a35760405162461bcd60e51b815260206004820181905260248201527f537472696e67733a20686578206c656e67746820696e73756666696369656e746044820152606401610500565b600081815260028301602052604081205480151580611fd45750611fd48484612335565b6115a35760405162461bcd60e51b815260206004820152601e60248201527f456e756d657261626c654d61703a206e6f6e6578697374656e74206b657900006044820152606401610500565b600054610100900460ff166120475760405162461bcd60e51b815260040161050090612c15565b610f538161235e565b600054610100900460ff166120775760405162461bcd60e51b815260040161050090612c15565b610d703361169a565b600054610100900460ff166120a75760405162461bcd60e51b815260040161050090612c15565b81516020928301208151919092012060fb9190915560fc55565b600054610100900460ff166120e85760405162461bcd60e51b815260040161050090612c15565b600161012f55565b6040805160018082528183019092526060916000919060208083019080368337019050509050828160008151811061212a5761212a612efa565b602090810291909101015292915050565b6001600160a01b0384163b1561143e5760405163f23a6e6160e01b81526001600160a01b0385169063f23a6e619061217f9089908990889088908890600401612a70565b602060405180830381600087803b15801561219957600080fd5b505af19250505080156121c9575060408051601f3d908101601f191682019092526121c6918101906128de565b60015b6121d557611d44612f26565b6001600160e01b0319811663f23a6e6160e01b146118ee5760405162461bcd60e51b815260040161050090612b09565b600061052e825490565b6000807f7fffffffffffffffffffffffffffffff5d576e7357a4501ddfe92f46681b20a083111561224657506000905060036122f3565b8460ff16601b1415801561225e57508460ff16601c14155b1561226f57506000905060046122f3565b6040805160008082526020820180845289905260ff881692820192909252606081018690526080810185905260019060a0016020604051602081039080840390855afa1580156122c3573d6000803e3d6000fd5b5050604051601f1901519150506001600160a01b0381166122ec576000600192509250506122f3565b9150600090505b94509492505050565b6000806001600160ff1b0383168161231960ff86901c601b612cc9565b90506123278782888561220f565b935093505050935093915050565b60006115a38383612371565b60008281526002840160205260408120829055611b9f8484612389565b8051610a039060679060208401906123df565b600081815260018301602052604081205415156115a3565b60006115a3838360008181526001830160205260408120546123d75750815460018181018455600084815260208082209093018490558454848252828601909352604090209190915561052e565b50600061052e565b8280546123eb90612e4c565b90600052602060002090601f01602090048101928261240d5760008555612453565b82601f1061242657805160ff1916838001178555612453565b82800160010185558215612453579182015b82811115612453578251825591602001919060010190612438565b5061245f929150612463565b5090565b5b8082111561245f5760008155600101612464565b80356001600160a01b038116811461112157600080fd5b600082601f8301126124a057600080fd5b813560206124ad82612ca6565b6040516124ba8282612e87565b8381528281019150858301600585901b870184018810156124da57600080fd5b60005b858110156124f9578135845292840192908401906001016124dd565b5090979650505050505050565b600082601f83011261251757600080fd5b81356001600160401b0381111561253057612530612f10565b604051612547601f8301601f191660200182612e87565b81815284602083860101111561255c57600080fd5b816020850160208301376000918101602001919091529392505050565b60006020828403121561258b57600080fd5b6115a382612478565b600080604083850312156125a757600080fd5b6125b083612478565b91506125be60208401612478565b90509250929050565b600080600080600060a086880312156125df57600080fd5b6125e886612478565b94506125f660208701612478565b935060408601356001600160401b038082111561261257600080fd5b61261e89838a0161248f565b9450606088013591508082111561263457600080fd5b61264089838a0161248f565b9350608088013591508082111561265657600080fd5b5061266388828901612506565b9150509295509295909350565b600080600080600060a0868803121561268857600080fd5b61269186612478565b945061269f60208701612478565b9350604086013592506060860135915060808601356001600160401b038111156126c857600080fd5b61266388828901612506565b600080604083850312156126e757600080fd5b6126f083612478565b91506020830135801515811461270557600080fd5b809150509250929050565b6000806040838503121561272357600080fd5b61272c83612478565b946020939093013593505050565b6000806040838503121561274d57600080fd5b82356001600160401b038082111561276457600080fd5b818501915085601f83011261277857600080fd5b8135602061278582612ca6565b6040516127928282612e87565b8381528281019150858301600585901b870184018b10156127b257600080fd5b600096505b848710156127dc576127c881612478565b8352600196909601959183019183016127b7565b50965050860135925050808211156127f357600080fd5b506128008582860161248f565b9150509250929050565b60006020828403121561281c57600080fd5b5035919050565b6000806040838503121561283657600080fd5b823591506125be60208401612478565b60008060006040848603121561285b57600080fd5b8335925060208401356001600160401b038082111561287957600080fd5b818601915086601f83011261288d57600080fd5b81358181111561289c57600080fd5b8760208285010111156128ae57600080fd5b6020830194508093505050509250925092565b6000602082840312156128d357600080fd5b81356115a3816130d0565b6000602082840312156128f057600080fd5b81516115a3816130d0565b6000806040838503121561290e57600080fd5b82356001600160401b0381111561292457600080fd5b830160a081860312156125b057600080fd5b600081518084526020808501945080840160005b838110156129665781518752958201959082019060010161294a565b509495945050505050565b60008151808452612989816020860160208601612e05565b601f01601f19169290920160200192915050565b7f416363657373436f6e74726f6c3a206163636f756e74200000000000000000008152600083516129d5816017850160208801612e05565b7001034b99036b4b9b9b4b733903937b6329607d1b6017918401918201528351612a06816028840160208801612e05565b01602801949350505050565b6001600160a01b0386811682528516602082015260a060408201819052600090612a3e90830186612936565b8281036060840152612a508186612936565b90508281036080840152612a648185612971565b98975050505050505050565b6001600160a01b03868116825285166020820152604081018490526060810183905260a060808201819052600090612aaa90830184612971565b979650505050505050565b6020815260006115a36020830184612936565b604081526000612adb6040830185612936565b8281036020840152612aed8185612936565b95945050505050565b6020815260006115a36020830184612971565b60208082526028908201527f455243313135353a204552433131353552656365697665722072656a656374656040820152676420746f6b656e7360c01b606082015260800190565b60208082526025908201527f455243313135353a207472616e7366657220746f20746865207a65726f206164604082015264647265737360d81b606082015260800190565b6020808252602a908201527f455243313135353a20696e73756666696369656e742062616c616e636520666f60408201526939103a3930b739b332b960b11b606082015260800190565b6020808252818101527f4f776e61626c653a2063616c6c6572206973206e6f7420746865206f776e6572604082015260600190565b6020808252602b908201527f496e697469616c697a61626c653a20636f6e7472616374206973206e6f74206960408201526a6e697469616c697a696e6760a81b606082015260800190565b6000808335601e19843603018112612c7757600080fd5b8301803591506001600160401b03821115612c9157600080fd5b6020019150368190038213156119bb57600080fd5b60006001600160401b03821115612cbf57612cbf612f10565b5060051b60200190565b60008219821115612cdc57612cdc612ece565b500190565b6000816000190483118215151615612cfb57612cfb612ece565b500290565b601f82111561088b57600081815260208120601f850160051c81016020861015612d275750805b601f850160051c820191505b8181101561143e57828155600101612d33565b6001600160401b03831115612d5d57612d5d612f10565b612d7183612d6b8354612e4c565b83612d00565b6000601f841160018114612da55760008515612d8d5750838201355b600019600387901b1c1916600186901b17835561095c565b600083815260209020601f19861690835b82811015612dd65786850135825560209485019460019092019101612db6565b5086821015612df35760001960f88860031b161c19848701351681555b505060018560011b0183555050505050565b60005b83811015612e20578181015183820152602001612e08565b83811115612e2f576000848401525b50505050565b600081612e4457612e44612ece565b506000190190565b600181811c90821680612e6057607f821691505b60208210811415612e8157634e487b7160e01b600052602260045260246000fd5b50919050565b601f8201601f191681016001600160401b0381118282101715612eac57612eac612f10565b6040525050565b6000600019821415612ec757612ec7612ece565b5060010190565b634e487b7160e01b600052601160045260246000fd5b634e487b7160e01b600052602160045260246000fd5b634e487b7160e01b600052603260045260246000fd5b634e487b7160e01b600052604160045260246000fd5b600060033d11156108c95760046000803e5060005160e01c90565b600060443d1015612f4f5790565b6040516003193d81016004833e81513d6001600160401b038160248401118184111715612f7e57505050505090565b8285019150815181811115612f965750505050505090565b843d8701016020828501011115612fb05750505050505090565b612fbf60208286010187612e87565b509095945050505050565b612fd48283612c60565b6001600160401b03811115612feb57612feb612f10565b612fff81612ff98554612e4c565b85612d00565b6000601f821160018114613033576000831561301b5750838201355b600019600385901b1c1916600184901b17855561308d565b600085815260209020601f19841690835b828110156130645786850135825560209485019460019092019101613044565b50848210156130815760001960f88660031b161c19848701351681555b505060018360011b0185555b5050505061309e6020830183612c60565b6130ac818360018601612d46565b50506040820135600282015560608201356003820155608082013560048201555050565b6001600160e01b031981168114610f5357600080fdfea2646970667358221220ed3064756d997ff677e0b73f9a493a1035aaa2d594df2907a892f56c1961799364736f6c63430008060033",
  "linkReferences": {},
  "deployedLinkReferences": {}
}